{
  "_format": "hh-sol-artifact-1",
  "contractName": "PaymentContract",
  "sourceName": "contracts/PaymentContract.sol",
  "abi": [
    {
      "inputs": [],
      "stateMutability": "nonpayable",
      "type": "constructor"
    },
    {
      "anonymous": false,
      "inputs": [
        {
          "indexed": true,
          "internalType": "bytes32",
          "name": "role",
          "type": "bytes32"
        },
        {
          "indexed": true,
          "internalType": "bytes32",
          "name": "previousAdminRole",
          "type": "bytes32"
        },
        {
          "indexed": true,
          "internalType": "bytes32",
          "name": "newAdminRole",
          "type": "bytes32"
        }
      ],
      "name": "RoleAdminChanged",
      "type": "event"
    },
    {
      "anonymous": false,
      "inputs": [
        {
          "indexed": true,
          "internalType": "bytes32",
          "name": "role",
          "type": "bytes32"
        },
        {
          "indexed": true,
          "internalType": "address",
          "name": "account",
          "type": "address"
        },
        {
          "indexed": true,
          "internalType": "address",
          "name": "sender",
          "type": "address"
        }
      ],
      "name": "RoleGranted",
      "type": "event"
    },
    {
      "anonymous": false,
      "inputs": [
        {
          "indexed": true,
          "internalType": "bytes32",
          "name": "role",
          "type": "bytes32"
        },
        {
          "indexed": true,
          "internalType": "address",
          "name": "account",
          "type": "address"
        },
        {
          "indexed": true,
          "internalType": "address",
          "name": "sender",
          "type": "address"
        }
      ],
      "name": "RoleRevoked",
      "type": "event"
    },
    {
      "inputs": [],
      "name": "DEFAULT_ADMIN_ROLE",
      "outputs": [
        {
          "internalType": "bytes32",
          "name": "",
          "type": "bytes32"
        }
      ],
      "stateMutability": "view",
      "type": "function"
    },
    {
      "inputs": [],
      "name": "getBalance",
      "outputs": [
        {
          "internalType": "uint256",
          "name": "",
          "type": "uint256"
        }
      ],
      "stateMutability": "view",
      "type": "function"
    },
    {
      "inputs": [
        {
          "internalType": "bytes32",
          "name": "role",
          "type": "bytes32"
        }
      ],
      "name": "getRoleAdmin",
      "outputs": [
        {
          "internalType": "bytes32",
          "name": "",
          "type": "bytes32"
        }
      ],
      "stateMutability": "view",
      "type": "function"
    },
    {
      "inputs": [
        {
          "internalType": "bytes32",
          "name": "role",
          "type": "bytes32"
        },
        {
          "internalType": "address",
          "name": "account",
          "type": "address"
        }
      ],
      "name": "grantRole",
      "outputs": [],
      "stateMutability": "nonpayable",
      "type": "function"
    },
    {
      "inputs": [
        {
          "internalType": "bytes32",
          "name": "role",
          "type": "bytes32"
        },
        {
          "internalType": "address",
          "name": "account",
          "type": "address"
        }
      ],
      "name": "hasRole",
      "outputs": [
        {
          "internalType": "bool",
          "name": "",
          "type": "bool"
        }
      ],
      "stateMutability": "view",
      "type": "function"
    },
    {
      "inputs": [
        {
          "internalType": "address payable",
          "name": "_to",
          "type": "address"
        }
      ],
      "name": "pay",
      "outputs": [],
      "stateMutability": "payable",
      "type": "function"
    },
    {
      "inputs": [
        {
          "internalType": "bytes32",
          "name": "role",
          "type": "bytes32"
        },
        {
          "internalType": "address",
          "name": "account",
          "type": "address"
        }
      ],
      "name": "renounceRole",
      "outputs": [],
      "stateMutability": "nonpayable",
      "type": "function"
    },
    {
      "inputs": [
        {
          "internalType": "bytes32",
          "name": "role",
          "type": "bytes32"
        },
        {
          "internalType": "address",
          "name": "account",
          "type": "address"
        }
      ],
      "name": "revokeRole",
      "outputs": [],
      "stateMutability": "nonpayable",
      "type": "function"
    },
    {
      "inputs": [
        {
          "internalType": "bytes4",
          "name": "interfaceId",
          "type": "bytes4"
        }
      ],
      "name": "supportsInterface",
      "outputs": [
        {
          "internalType": "bool",
          "name": "",
          "type": "bool"
        }
      ],
      "stateMutability": "view",
      "type": "function"
    },
    {
      "inputs": [
        {
          "internalType": "uint256",
          "name": "amount",
          "type": "uint256"
        },
        {
          "internalType": "address",
          "name": "_to",
          "type": "address"
        }
      ],
      "name": "withdraw",
      "outputs": [],
      "stateMutability": "nonpayable",
      "type": "function"
    }
  ],
  "bytecode": "0x608060405234801561001057600080fd5b5033600160006101000a81548173ffffffffffffffffffffffffffffffffffffffff021916908373ffffffffffffffffffffffffffffffffffffffff1602179055506100876000801b600160009054906101000a900473ffffffffffffffffffffffffffffffffffffffff1661008c60201b60201c565b6101ea565b61009c828261017860201b60201c565b61017457600160008084815260200190815260200160002060000160008373ffffffffffffffffffffffffffffffffffffffff1673ffffffffffffffffffffffffffffffffffffffff16815260200190815260200160002060006101000a81548160ff0219169083151502179055506101196101e260201b60201c565b73ffffffffffffffffffffffffffffffffffffffff168173ffffffffffffffffffffffffffffffffffffffff16837f2f8788117e7eff1d82e926ec794901d17c78024a50270940304540a733656f0d60405160405180910390a45b5050565b600080600084815260200190815260200160002060000160008373ffffffffffffffffffffffffffffffffffffffff1673ffffffffffffffffffffffffffffffffffffffff16815260200190815260200160002060009054906101000a900460ff16905092915050565b600033905090565b611542806101f96000396000f3fe6080604052600436106100905760003560e01c80632f2ff15d116100595780632f2ff15d1461017f57806336568abe146101a857806391d14854146101d1578063a217fddf1461020e578063d547741f1461023957610090565b8062f714ce1461009557806301ffc9a7146100be5780630c11dedd146100fb57806312065fe014610117578063248a9ca314610142575b600080fd5b3480156100a157600080fd5b506100bc60048036038101906100b79190610c3d565b610262565b005b3480156100ca57600080fd5b506100e560048036038101906100e09190610cd5565b61036d565b6040516100f29190610d1d565b60405180910390f35b61011560048036038101906101109190610d76565b6103e7565b005b34801561012357600080fd5b5061012c610527565b6040516101399190610db2565b60405180910390f35b34801561014e57600080fd5b5061016960048036038101906101649190610e03565b61052f565b6040516101769190610e3f565b60405180910390f35b34801561018b57600080fd5b506101a660048036038101906101a19190610e5a565b61054e565b005b3480156101b457600080fd5b506101cf60048036038101906101ca9190610e5a565b61056f565b005b3480156101dd57600080fd5b506101f860048036038101906101f39190610e5a565b6105f2565b6040516102059190610d1d565b60405180910390f35b34801561021a57600080fd5b5061022361065c565b6040516102309190610e3f565b60405180910390f35b34801561024557600080fd5b50610260600480360381019061025b9190610e5a565b610663565b005b6000801b61026f81610684565b61027c6000801b836105f2565b6102bb576040517f08c379a00000000000000000000000000000000000000000000000000000000081526004016102b290610f1d565b60405180910390fd5b60008273ffffffffffffffffffffffffffffffffffffffff16846040516102e190610f6e565b60006040518083038185875af1925050503d806000811461031e576040519150601f19603f3d011682016040523d82523d6000602084013e610323565b606091505b5050905080610367576040517f08c379a000000000000000000000000000000000000000000000000000000000815260040161035e90610fcf565b60405180910390fd5b50505050565b60007f7965db0b000000000000000000000000000000000000000000000000000000007bffffffffffffffffffffffffffffffffffffffffffffffffffffffff1916827bffffffffffffffffffffffffffffffffffffffffffffffffffffffff191614806103e057506103df82610698565b5b9050919050565b60003490508061271080836103fc919061104d565b610406919061107e565b14610446576040517f08c379a000000000000000000000000000000000000000000000000000000000815260040161043d90611124565b60405180910390fd5b6000612710608c83610458919061107e565b610462919061104d565b9050600081836104729190611144565b905060008473ffffffffffffffffffffffffffffffffffffffff168260405161049a90610f6e565b60006040518083038185875af1925050503d80600081146104d7576040519150601f19603f3d011682016040523d82523d6000602084013e6104dc565b606091505b5050905080610520576040517f08c379a000000000000000000000000000000000000000000000000000000000815260040161051790610fcf565b60405180910390fd5b5050505050565b600047905090565b6000806000838152602001908152602001600020600101549050919050565b6105578261052f565b61056081610684565b61056a8383610702565b505050565b6105776107e2565b73ffffffffffffffffffffffffffffffffffffffff168173ffffffffffffffffffffffffffffffffffffffff16146105e4576040517f08c379a00000000000000000000000000000000000000000000000000000000081526004016105db906111ea565b60405180910390fd5b6105ee82826107ea565b5050565b600080600084815260200190815260200160002060000160008373ffffffffffffffffffffffffffffffffffffffff1673ffffffffffffffffffffffffffffffffffffffff16815260200190815260200160002060009054906101000a900460ff16905092915050565b6000801b81565b61066c8261052f565b61067581610684565b61067f83836107ea565b505050565b610695816106906107e2565b6108cb565b50565b60007f01ffc9a7000000000000000000000000000000000000000000000000000000007bffffffffffffffffffffffffffffffffffffffffffffffffffffffff1916827bffffffffffffffffffffffffffffffffffffffffffffffffffffffff1916149050919050565b61070c82826105f2565b6107de57600160008084815260200190815260200160002060000160008373ffffffffffffffffffffffffffffffffffffffff1673ffffffffffffffffffffffffffffffffffffffff16815260200190815260200160002060006101000a81548160ff0219169083151502179055506107836107e2565b73ffffffffffffffffffffffffffffffffffffffff168173ffffffffffffffffffffffffffffffffffffffff16837f2f8788117e7eff1d82e926ec794901d17c78024a50270940304540a733656f0d60405160405180910390a45b5050565b600033905090565b6107f482826105f2565b156108c757600080600084815260200190815260200160002060000160008373ffffffffffffffffffffffffffffffffffffffff1673ffffffffffffffffffffffffffffffffffffffff16815260200190815260200160002060006101000a81548160ff02191690831515021790555061086c6107e2565b73ffffffffffffffffffffffffffffffffffffffff168173ffffffffffffffffffffffffffffffffffffffff16837ff6391f5c32d9c69d2a47ea670b442974b53935d1edc7fd64eb21e047a839171b60405160405180910390a45b5050565b6108d582826105f2565b610964576108fa8173ffffffffffffffffffffffffffffffffffffffff166014610968565b6109088360001c6020610968565b60405160200161091992919061131c565b6040516020818303038152906040526040517f08c379a000000000000000000000000000000000000000000000000000000000815260040161095b91906113a0565b60405180910390fd5b5050565b60606000600283600261097b919061107e565b61098591906113c2565b67ffffffffffffffff81111561099e5761099d611418565b5b6040519080825280601f01601f1916602001820160405280156109d05781602001600182028036833780820191505090505b5090507f300000000000000000000000000000000000000000000000000000000000000081600081518110610a0857610a07611447565b5b60200101907effffffffffffffffffffffffffffffffffffffffffffffffffffffffffffff1916908160001a9053507f780000000000000000000000000000000000000000000000000000000000000081600181518110610a6c57610a6b611447565b5b60200101907effffffffffffffffffffffffffffffffffffffffffffffffffffffffffffff1916908160001a90535060006001846002610aac919061107e565b610ab691906113c2565b90505b6001811115610b56577f3031323334353637383961626364656600000000000000000000000000000000600f861660108110610af857610af7611447565b5b1a60f81b828281518110610b0f57610b0e611447565b5b60200101907effffffffffffffffffffffffffffffffffffffffffffffffffffffffffffff1916908160001a905350600485901c945080610b4f90611476565b9050610ab9565b5060008414610b9a576040517f08c379a0000000000000000000000000000000000000000000000000000000008152600401610b91906114ec565b60405180910390fd5b8091505092915050565b600080fd5b6000819050919050565b610bbc81610ba9565b8114610bc757600080fd5b50565b600081359050610bd981610bb3565b92915050565b600073ffffffffffffffffffffffffffffffffffffffff82169050919050565b6000610c0a82610bdf565b9050919050565b610c1a81610bff565b8114610c2557600080fd5b50565b600081359050610c3781610c11565b92915050565b60008060408385031215610c5457610c53610ba4565b5b6000610c6285828601610bca565b9250506020610c7385828601610c28565b9150509250929050565b60007fffffffff0000000000000000000000000000000000000000000000000000000082169050919050565b610cb281610c7d565b8114610cbd57600080fd5b50565b600081359050610ccf81610ca9565b92915050565b600060208284031215610ceb57610cea610ba4565b5b6000610cf984828501610cc0565b91505092915050565b60008115159050919050565b610d1781610d02565b82525050565b6000602082019050610d326000830184610d0e565b92915050565b6000610d4382610bdf565b9050919050565b610d5381610d38565b8114610d5e57600080fd5b50565b600081359050610d7081610d4a565b92915050565b600060208284031215610d8c57610d8b610ba4565b5b6000610d9a84828501610d61565b91505092915050565b610dac81610ba9565b82525050565b6000602082019050610dc76000830184610da3565b92915050565b6000819050919050565b610de081610dcd565b8114610deb57600080fd5b50565b600081359050610dfd81610dd7565b92915050565b600060208284031215610e1957610e18610ba4565b5b6000610e2784828501610dee565b91505092915050565b610e3981610dcd565b82525050565b6000602082019050610e546000830184610e30565b92915050565b60008060408385031215610e7157610e70610ba4565b5b6000610e7f85828601610dee565b9250506020610e9085828601610c28565b9150509250929050565b600082825260208201905092915050565b7f4f6e6c79206f776e6572206164647265737320697320616c6c6f77656420746f60008201527f2072656365697665207468652066656573000000000000000000000000000000602082015250565b6000610f07603183610e9a565b9150610f1282610eab565b604082019050919050565b60006020820190508181036000830152610f3681610efa565b9050919050565b600081905092915050565b50565b6000610f58600083610f3d565b9150610f6382610f48565b600082019050919050565b6000610f7982610f4b565b9150819050919050565b7f4661696c656420746f2073656e64204574686572000000000000000000000000600082015250565b6000610fb9601483610e9a565b9150610fc482610f83565b602082019050919050565b60006020820190508181036000830152610fe881610fac565b9050919050565b7f4e487b7100000000000000000000000000000000000000000000000000000000600052601260045260246000fd5b7f4e487b7100000000000000000000000000000000000000000000000000000000600052601160045260246000fd5b600061105882610ba9565b915061106383610ba9565b92508261107357611072610fef565b5b828204905092915050565b600061108982610ba9565b915061109483610ba9565b9250817fffffffffffffffffffffffffffffffffffffffffffffffffffffffffffffffff04831182151516156110cd576110cc61101e565b5b828202905092915050565b7f746f6f20736d616c6c20616d6f756e7400000000000000000000000000000000600082015250565b600061110e601083610e9a565b9150611119826110d8565b602082019050919050565b6000602082019050818103600083015261113d81611101565b9050919050565b600061114f82610ba9565b915061115a83610ba9565b92508282101561116d5761116c61101e565b5b828203905092915050565b7f416363657373436f6e74726f6c3a2063616e206f6e6c792072656e6f756e636560008201527f20726f6c657320666f722073656c660000000000000000000000000000000000602082015250565b60006111d4602f83610e9a565b91506111df82611178565b604082019050919050565b60006020820190508181036000830152611203816111c7565b9050919050565b600081905092915050565b7f416363657373436f6e74726f6c3a206163636f756e7420000000000000000000600082015250565b600061124b60178361120a565b915061125682611215565b601782019050919050565b600081519050919050565b60005b8381101561128a57808201518184015260208101905061126f565b83811115611299576000848401525b50505050565b60006112aa82611261565b6112b4818561120a565b93506112c481856020860161126c565b80840191505092915050565b7f206973206d697373696e6720726f6c6520000000000000000000000000000000600082015250565b600061130660118361120a565b9150611311826112d0565b601182019050919050565b60006113278261123e565b9150611333828561129f565b915061133e826112f9565b915061134a828461129f565b91508190509392505050565b6000601f19601f8301169050919050565b600061137282611261565b61137c8185610e9a565b935061138c81856020860161126c565b61139581611356565b840191505092915050565b600060208201905081810360008301526113ba8184611367565b905092915050565b60006113cd82610ba9565b91506113d883610ba9565b9250827fffffffffffffffffffffffffffffffffffffffffffffffffffffffffffffffff0382111561140d5761140c61101e565b5b828201905092915050565b7f4e487b7100000000000000000000000000000000000000000000000000000000600052604160045260246000fd5b7f4e487b7100000000000000000000000000000000000000000000000000000000600052603260045260246000fd5b600061148182610ba9565b915060008214156114955761149461101e565b5b600182039050919050565b7f537472696e67733a20686578206c656e67746820696e73756666696369656e74600082015250565b60006114d6602083610e9a565b91506114e1826114a0565b602082019050919050565b60006020820190508181036000830152611505816114c9565b905091905056fea26469706673582212204ce00321ecf2e9d5e0b990d5e3fb8172aa013b5826bef639f2519fe9efd0615364736f6c63430008090033",
  "linkReferences": {},
  "deployedLinkReferences": {}
}